:020000040000FA
:10000000A8020010690100007101000073010000E6
:100010007501000077010000790100000000000078
:100020000000000000000000000000007B01000054
:100030007D010000000000007F010000490D00006C
:1000400083010000830100008301000083010000A0
:100050008301000083010000830100008301000090
:100060008301000083010000830100008301000080
:100070008301000083010000830100008301000070
:100080008301000083010000830100008301000060
:100090008301000083010000830100008301000050
:1000A0008301000083010000830100008301000040
:1000B0008301000083010000830100008301000030
:1000C00083010000830100008301000000F002F8BA
:1000D00000F03AF80AA090E8000C82448344AAF1A8
:1000E0000107DA4501D100F02FF8AFF2090EBAE8A6
:1000F0000F0013F0010F18BFFB1A43F0010318475C
:100100008C100000AC100000103A24BF78C878C1F1
:10011000FAD8520724BF30C830C144BF04680C600D
:10012000704700000023002400250026103A28BF55
:1001300078C1FBD8520728BF30C148BF0B60704759
:100140001FB51FBD10B510BD00F075FF1146FFF7BC
:10015000F7FF00F0D7FD00F0C8F803B4FFF7F2FF97
:1001600003BC00F091FF00000948804709480047A0
:10017000FEE7FEE7FEE7FEE7FEE7FEE7FEE7FEE757
:10018000FEE7FEE704480549034A054B70470000B7
:100190002D040000CD000000A8000010A8020010EF
:1001A000A800001010B50A46202801D2034601E03D
:1001B000A0F120031946202810D2454B1B680324C8
:1001C0008C40A343434CC4F8A831414B1B6802FA4E
:1001D00001F423433F4CC4F8A83111E03C4B1B1DF4
:1001E0001B6803248C40A3433A4CC4F8AC31384B11
:1001F0001B1D1B6802FA01F42343364CC4F8AC31D2
:1002000010BD0146202903D20A46314B186804E08C
:10021000A1F120022E4B1B1D186820FA02F303F0F7
:100220000300704770B506462B4804683046FFF758
:10023000E8FF054635B1012D06D0022D06D0032D6D
:1002400008D105E0042505E0012503E0022501E0D1
:10025000082500BF00BFB4FBF5F4204670BD01299E
:1002600009D11C4AC43212681C4B03401A43194B73
:10027000C3F8C42009E041B9164AC4321268174BCA
:1002800083431A40134BC3F8C42070470020114920
:10029000C031086030BF7047042011490860082051
:1002A0000C49C031086030BF704704200C49086019
:1002B00009200849C031086030BF70470420084950
:1002C000086003200349C031086030BF7047000058
:1002D000A8C10F4000C00F4000000010DEF7EFEF94
:1002E00010ED00E07047704770470446AFF30080A0
:1002F0002046FFF732FF704700000000FFFFFFFFBE
:1003000097480068C0F3016003285DD194488430A9
:10031000006800F0030030B1012820D0022839D055
:10032000032850D100E000BF8D480068C0F30E00E4
:10033000401C40008B49484389498839D1F88810CE
:10034000C1F30741491CB0FBF1F185487C300068DE
:10035000C0B2401CB1FBF0F08349086033E0804834
:100360000068C0F30E00401C4000804948437C49AF
:100370008839D1F88810C1F30741491CB0FBF1F16D
:1003800077487C300068C0B2401CB1FBF0F0764981
:10039000086018E072480068C0F30E00401C0104B9
:1003A0006F488838D0F88800C0F30740401CB1FB84
:1003B000F0F16B487C300068C0B2401CB1FBF0F03B
:1003C0006949086000BF30E065488430006800F08B
:1003D000030030B1012810D0022819D0032823D1FE
:1003E00000E000BF5E487C300068C0B2401C5D4940
:1003F000B1FBF0F05C49086016E059487C300068B9
:10040000C0B2401C5949B1FBF0F0574908600BE0FD
:1004100053487C300068C0B2401C4FF40041B1FB2F
:10042000F0F05149086000BF00BF704720205049DC
:1004300008604B488838D0F8A00100F0200030B1A7
:1004400000BF4B48006800F040000028F9D00320AE
:1004500043497C310860002041498839C1F8A8012E
:1004600043490C31086001203D498431086041480E
:100470003B49091F0860AA203949091D0860552019
:1004800008600120364908390860AA203449091D4E
:100490000860552032498839C1F88C0000BF3048C7
:1004A000006800F080600028F9D003202C4908394A
:1004B0000860AA202A498839C1F88C0055202849AB
:1004C000091D086000BF2648006800F04070002841
:1004D000F9D0232022491C310860AA2020498839FC
:1004E000C1F8AC0055201E492431086001201C4988
:1004F00018310860AA201A4924310860552018498B
:100500008839C1F8AC0000BF15482030006800F4FD
:1005100080600028F8D00320114918310860AA2013
:100520000F498839C1F8AC0055200D4924310860C5
:1005300000BF0B482030006800F440700028F8D05D
:100540000D4807493C310860002005498839C1F849
:10055000C80143F23A00086000200849086070476B
:1005600088C00F4000093D0000000010001BB700CC
:10057000A0C10F4063000500DE87280408ED00E0FD
:10058000F0B504460B461546194660003B4A102953
:1005900001D31039401C52F820604FEA410C032768
:1005A00007FA0CF7BE4342F8206052F820604F0073
:1005B00005FA07F73E4342F82060F0BDF0B5044667
:1005C0000B461546194660002C4A4032102901D3CB
:1005D0001039401C52F820604FEA410C032707FAFB
:1005E0000CF7BE4342F8206052F820604F0005FA35
:1005F00007F73E4342F82060F0BD30B50B461F4977
:100600006831012A07D151F8204001259D402C4333
:1006100041F8204006E051F8204001259D40AC43C0
:1006200041F8204030BD012806D11449896A41F0C3
:100630000801124A916206E028B91049896A21F03E
:1006400008010E4A91627047012800D1052201B9C4
:100650000A220A4BDA67704710B50446A27861781F
:100660002078FFF78DFFE27861782078FFF7A6FF0A
:10067000227961782078FFF7C0FF10BD00C00240EA
:1006800070B5054635B1012D09D0022D0CD0032DD2
:1006900014D10EE00220FFF7C5FD04460EE0042051
:1006A000FFF7C0FD044609E02C20FFF7BBFD044620
:1006B00004E02E20FFF7B6FD044600BF00BF204631
:1006C00070BD2DE9F04781460C464846FFF7D8FF3C
:1006D0000026054600232946A1FB047C06FB04C234
:1006E00005FB0321FB4A384600F02EFC0546284650
:1006F000BDE8F08701464FF0FF30B1F1402F01D146
:1007000000200DE0F44A914201D1012008E0F34AB3
:10071000914201D1022003E0F14A914200D103202D
:10072000704770B505460C46B5F1402F08D0EA4831
:10073000854205D0E948854202D0E948854200D18A
:1007400003E0A621E7A000F0F6FA4CB1012C07D097
:10075000022C05D0032C03D0042C01D0052C00D191
:1007600003E0A721DFA000F0E6FA28680121A140FC
:100770000840C6B20EB1012070BD0020FCE770B584
:1007800005460C46B5F1402F08D0D348854205D028
:10079000D248854202D0D248854200D103E0C4212C
:1007A000D0A000F0C8FA4CB1012C07D0022C05D023
:1007B000032C03D0042C01D0052C00D103E0C5216B
:1007C000C8A000F0B8FA2868211D01228A40104014
:1007D000C6B20EB1012070BD0020FCE770B5054621
:1007E0000C46B5F1402F08D0BB48854205D0BB4828
:1007F000854202D0BA48854200D103E0DD21B9A08C
:1008000000F099FA4CB1012C07D0022C05D0032C32
:1008100003D0042C01D0052C00D103E0DE21B1A0CF
:1008200000F089FA0120A040286070BD70B505462F
:100830000C46B5F1402F08D0A748854205D0A748FF
:10084000854202D0A648854200D103E0F421A5A04C
:1008500000F071FA4CB1012C07D0022C05D0032C0A
:1008600003D0042C01D0052C00D103E0F5219DA07C
:1008700000F061FA201D01218140296070BD20B97E
:100880000A4601231370536003E00A4600235370A5
:1008900000BF70472DE9F04704460D461646B4F1F7
:1008A000402F08D08C48844205D08C48844202D026
:1008B0008B48844200D104E040F22B1189A000F063
:1008C0003AFA1DB1012D01D000D000D104E04FF45F
:1008D000967184A000F02FFAB4F1402F08D10121C5
:1008E0000220FFF7BCFC00210220FFF75BFC22E0A6
:1008F0007948844208D101210420FFF7B0FC00218F
:100900000420FFF74FFC16E07448844208D101210F
:100910008805FFF7A4FC00212C20FFF743FC0AE028
:100920006F48844207D10121C805FFF798FC0021D8
:100930002E20FFF737FCA06A20F00300A062A06A17
:10094000A0620020A0602061E060606840F00200CA
:100950006060606820F00200606085B937463878D2
:1009600018B97868401EE06017E02046FFF7C2FE25
:1009700081467968FFF7A5FE401EE0600DE0B046B5
:10098000A06A20F00C00A062464698F801000128F9
:1009900003D1A06A40F00400A0624FF0FF30206055
:1009A000BDE8F08710B50446B4F1402F08D04A489E
:1009B000844205D04948844202D04948844200D14B
:1009C00004E040F2791147A000F0B5F90020606022
:1009D000B4F1402F04D100210220FFF740FC18E0C1
:1009E0003D48844204D100210420FFF738FC10E088
:1009F0003A48844205D100214FF48000FFF72FFCD4
:100A000007E03748844204D100214FF48000FFF70B
:100A100026FC10BD70B504460D46B4F1402F08D039
:100A20002D48844205D02D48844202D02C4884426F
:100A300000D104E04FF4CD712AA000F07CF9012D23
:100A400004D1606840F00100606003E0606820F05D
:100A50000100606070BD10B50446B4F1402F08D0AD
:100A60001D48844205D01D48844202D01C4884425F
:100A700000D104E04FF4D9711AA000F05CF960686D
:100A800040F002006060606820F00200606010BD0D
:100A900070B504460D46B4F1402F08D00E4884428C
:100AA00005D00E48844202D00D48844200D104E0B3
:100AB00040F2D1110BA000F03EF9287940B128791D
:100AC000012805D02879022802D02879032829D1C5
:100AD0002EE0000040420F0000800040000009406E
:100AE000004009402E2E5C4C696272617269657328
:100AF0005C4C4350313736385F53746450657269CB
:100B000070685F4472697665725C736F7572636555
:100B10005C6C7063313778785F74696D65722E63D1
:100B2000000000004FF4E971AFF2480000F003F953
:100B3000287830B1012807D0022808D003280CD12A
:100B400008E0A868A0610AE0A868E06107E0A8687A
:100B5000206204E0A868606201E000BFFEE700BF19
:100B60006069297801EB4102072191408843606167
:100B7000687838B16069297801EB41020121914020
:100B800008436061E87840B16069297801EB410170
:100B9000491C01228A4010436061A87840B1606915
:100BA000297801EB4101891C01228A4010436061D0
:100BB000E06B2978042202EB410203219140884333
:100BC000E063287900F003002978042202EB410158
:100BD0008840E16B0843E06370BD70B504460E4683
:100BE0001546B4F1402F08D04348844205D043480D
:100BF000844202D04248844200D105E040F20721FD
:100C0000AFF2201000F097F836B1012E06D0022E78
:100C100006D0032E08D105E0A56107E0E56105E0F7
:100C2000256203E0656201E000BFFEE700BF70BD22
:100C300070B504460D46B4F1402F08D02E488442CA
:100C400005D02E48844202D02D48844200D105E0D0
:100C500040F22D21AFF2741000F06DF8A06A2978EF
:100C600001EB4102072191408843A062687838B1C6
:100C7000A06A297801EB4102012191400843A0625A
:100C8000A87840B1A06A297801EB4101491C0122F2
:100C90008A401043A062E87840B1A06A297801EB4D
:100CA0004101891C01228A401043A06270BD70B5C9
:100CB00004460D46B4F1402F08D00F48844205D0B9
:100CC0000E48844202D00E48844200D105E04FF421
:100CD0001271AFF2F01000F02EF80DB1012D00D11D
:100CE00005E040F24921AFF2042000F024F80DB9EC
:100CF000E06A70BD206BFCE7008000400000094006
:100D00000040094000200D4908600AE00B480078C7
:100D10000B490A4A1268885408480068401C074971
:100D20000860064800681028F0DB03E00549044825
:100D300000F09BF8FAE700BFFEE700000800001093
:100D400028000010040000101C480068401C1B49CB
:100D50000860704730B51A4800684FF47A72B0FBEB
:100D6000F2F0411EB1F1807F00D31DE021F07F4001
:100D7000401E4FF0E022506150171F22002807DA72
:100D8000D3061D0E0F4B00F00F04241F1D5503E06A
:100D9000D3061C0E0C4B1C5400BF00204FF0E02269
:100DA00090610720106100BF30BD044A116800BF88
:100DB000024A1268521A8242FAD370470C0000109D
:100DC0000000001018ED00E000E400E02DE9F04123
:100DD000044615461E462CB101214FF04020FFF776
:100DE00019FE04E000214FF04020FFF713FE2846D3
:100DF000314600F04FF90746FFF7D7FFBDE8F08115
:100E000010B54FF03332474B0120FFF7DFFF0022D0
:100E1000454B1046FFF7DAFF10BD10B54FF03332E7
:100E2000404B0120FFF7D2FF0022404B1046FFF756
:100E3000CDFF10BD10B54FF033323A4B0120FFF714
:100E4000C5FF00224FF080431046FFF7BFFF10BDE3
:100E500010B54FF03332334B0120FFF7B7FF0022BC
:100E6000334B1046FFF7B2FF10BD2DE9F0410646A7
:100E70000F46FFF7EDFF002411E000250BE0305D89
:100E800001212941084010B1FFF7D4FF01E0FFF72D
:100E9000C4FF681CC5B2082DF1DB601CC4B2102C65
:100EA000EBDBFFF7ADFF01203870BDE8F08110B536
:100EB000FFF750FF00201F490870642048600020A1
:100EC0001D4908706420486000201C4908700120FA
:100ED000487000208870C870032008710E20886058
:100EE0000120174908701C204870032088700020DA
:100EF000C87008710846FFF7AFFB0E4A00214FF09B
:100F00004020FFF7C7FC0D494FF04020FFF7C0FD20
:100F100010BD10B54FF04020FFF744FD0948FFF722
:100F200041FD10BD3333E33F000044400000F03F7B
:100F300000001240180000102000001038000010BF
:100F4000110000100080004053EA020C00F069809C
:100F50002DE9F04B4FF00006002B1FBFB3FA83F5CD
:100F600003FA05F424FA05F65E4012BF1643B2FAFE
:100F700082F502FA05F4C5F120051EBF22FA05FC30
:100F800044EA0C04203556EA044C4FEA144418BFD6
:100F9000641C4FF000084FF00009904271EB030C05
:100FA00039D3002919BFB1FA81F701FA07F6B0FA6F
:100FB00080F700FA07F6C7F120071EBF20FA07FCEA
:100FC00046EA0C062037B6FBF4FCA7EB0507103FFA
:100FD00007F01F0BCBF120060CFA0BFB2CFA06F6E0
:100FE00044BFB3460026202FA4BF5E464FF0000B3F
:100FF0005BEA060C08BF4FF0010B19EB0B09ABFBCA
:10100000027C48EB0608C01B06FB02CC0BFB03CCA2
:1010100071EB0C01C1E70B46024641464846BDE86C
:10102000F08B13B54FF000004FF00001AFF30080DC
:10103000BDE81C407047754600F022F8AE4605003A
:101040006946534620F00700854618B020B5FFF7E3
:1010500099F8BDE820404FF000064FF000074FF030
:1010600000084FF0000B21F00701AC46ACE8C009C6
:10107000ACE8C009ACE8C009ACE8C0098D467047CF
:10108000004870474400001001491820ABBEFEE73D
:10109000260002004FEA1153A3F58063D3F11E032B
:1010A000A8BFD3F1200C08DB4FF0004242EAC12276
:1010B00052EA505232FA03F0704709420BD4102B17
:1010C000C4BF0020704703F5787CBCF1FF3F05D01A
:1010D0004FF0FF3070474FF00000704770B500F0E0
:1010E00006F800BF4992248000207047F0E70EF117
:1010F000020E2EF0030E5EF8046B364205D4012A70
:1011000043EB030515F5001F12D8012841EB010C34
:101110001CF5001F0CD80ED14FEAD17C15F5001F2D
:101120000CEB4C0C0CF1020C08BF4CEBD37C04E034
:101130004FF0080C01E04FEAD37C0CEB4C0526FA8B
:1011400005F606F00706B6F1040C06D20EEB860C87
:10115000BDE870404CF0010C6047DFE80CF0090B73
:1011600002024FF000414FF00000A1F5002170BDD8
:1011700019461046012851EB010418BFD4F500149C
:1011800084BF002001F0004170BD0000AC110000E0
:10119000000000102800000008010000D411000029
:1011A00028000010800200002401000000E1F50585
:1011B000000000000000000000000000000000002F
:1011C000000000000000000000000000000000001F
:0411D000000000001B
:04000005000000CD2A
:00000001FF
