:020000040000FA
:10000000C8060010690100007101000073010000C2
:100010007501000077010000790100000000000078
:100020000000000000000000000000007B01000054
:100030007D010000000000007F0100007111000040
:100040008301000083010000A11300008301000070
:100050008301000083010000830100008301000090
:100060008301000083010000830100008301000080
:100070008301000083010000830100008301000070
:100080008301000083010000830100008301000060
:100090008301000083010000830100008301000050
:1000A0008301000083010000830100008301000040
:1000B0008301000083010000830100008301000030
:1000C00083010000830100008301000000F002F8BA
:1000D00000F03AF80AA090E8000C82448344AAF1A8
:1000E0000107DA4501D100F02FF8AFF2090EBAE8A6
:1000F0000F0013F0010F18BFFB1A43F0010318475C
:100100003414000054140000103A24BF78C878C199
:10011000FAD8520724BF30C830C144BF04680C600D
:10012000704700000023002400250026103A28BF55
:1001300078C1FBD8520728BF30C148BF0B60704759
:100140001FB51FBD10B510BD01F0C5F91146FFF771
:10015000F7FF00F0DFFF00F0C8F803B4FFF7F2FF8D
:1001600003BC01F0E1F90000094880470948004755
:10017000FEE7FEE7FEE7FEE7FEE7FEE7FEE7FEE757
:10018000FEE7FEE704480549034A054B70470000B7
:100190002D040000CD000000C8040010C8060010A7
:1001A000C804001010B50A46202801D2034601E019
:1001B000A0F120031946202810D2454B1B680324C8
:1001C0008C40A343434CC4F8A831414B1B6802FA4E
:1001D00001F423433F4CC4F8A83111E03C4B1B1DF4
:1001E0001B6803248C40A3433A4CC4F8AC31384B11
:1001F0001B1D1B6802FA01F42343364CC4F8AC31D2
:1002000010BD0146202903D20A46314B186804E08C
:10021000A1F120022E4B1B1D186820FA02F303F0F7
:100220000300704770B506462B4804683046FFF758
:10023000E8FF054635B1012D06D0022D06D0032D6D
:1002400008D105E0042505E0012503E0022501E0D1
:10025000082500BF00BFB4FBF5F4204670BD01299E
:1002600009D11C4AC43212681C4B03401A43194B73
:10027000C3F8C42009E041B9164AC4321268174BCA
:1002800083431A40134BC3F8C42070470020114920
:10029000C031086030BF7047042011490860082051
:1002A0000C49C031086030BF704704200C49086019
:1002B00009200849C031086030BF70470420084950
:1002C000086003200349C031086030BF7047000058
:1002D000A8C10F4000C00F4000000010DEF7EFEF94
:1002E00010ED00E07047704770470446AFF30080A0
:1002F0002046FFF732FF704700000000FFFFFFFFBE
:1003000097480068C0F3016003285DD194488430A9
:10031000006800F0030030B1012820D0022839D055
:10032000032850D100E000BF8D480068C0F30E00E4
:10033000401C40008B49484389498839D1F88810CE
:10034000C1F30741491CB0FBF1F185487C300068DE
:10035000C0B2401CB1FBF0F08349086033E0804834
:100360000068C0F30E00401C4000804948437C49AF
:100370008839D1F88810C1F30741491CB0FBF1F16D
:1003800077487C300068C0B2401CB1FBF0F0764981
:10039000086018E072480068C0F30E00401C0104B9
:1003A0006F488838D0F88800C0F30740401CB1FB84
:1003B000F0F16B487C300068C0B2401CB1FBF0F03B
:1003C0006949086000BF30E065488430006800F08B
:1003D000030030B1012810D0022819D0032823D1FE
:1003E00000E000BF5E487C300068C0B2401C5D4940
:1003F000B1FBF0F05C49086016E059487C300068B9
:10040000C0B2401C5949B1FBF0F0574908600BE0FD
:1004100053487C300068C0B2401C4FF40041B1FB2F
:10042000F0F05149086000BF00BF704720205049DC
:1004300008604B488838D0F8A00100F0200030B1A7
:1004400000BF4B48006800F040000028F9D00320AE
:1004500043497C310860002041498839C1F8A8012E
:1004600043490C31086001203D498431086041480E
:100470003B49091F0860AA203949091D0860552019
:1004800008600120364908390860AA203449091D4E
:100490000860552032498839C1F88C0000BF3048C7
:1004A000006800F080600028F9D003202C4908394A
:1004B0000860AA202A498839C1F88C0055202849AB
:1004C000091D086000BF2648006800F04070002841
:1004D000F9D0232022491C310860AA2020498839FC
:1004E000C1F8AC0055201E492431086001201C4988
:1004F00018310860AA201A4924310860552018498B
:100500008839C1F8AC0000BF15482030006800F4FD
:1005100080600028F8D00320114918310860AA2013
:100520000F498839C1F8AC0055200D4924310860C5
:1005300000BF0B482030006800F440700028F8D05D
:100540000D4807493C310860002005498839C1F849
:10055000C80143F23A00086000200849086070476B
:1005600088C00F4000093D0000000010001BB700CC
:10057000A0C10F4063000500DE87280408ED00E0FD
:1005800001460020052912D2DFE801F00305080B1F
:100590000E00FB480CE0FA48203009E0F8484030F3
:1005A00006E0F748603003E0F548803000E000BF27
:1005B00000BF704701460020052912D2DFE801F094
:1005C0000305080B0E00EE480CE0ED48203009E072
:1005D000EB48403006E0EA48603003E0E84880300D
:1005E00000E000BF00BF704701460020052912D27D
:1005F000DFE801F00305080B0E00E1480CE0E048DD
:10060000203009E0DE48403006E0DD48603003E09D
:10061000DB48803000E000BF00BF70472DE9F041AB
:1006200007460D4616463846FFF7AAFF04463CB17A
:100630001EB120682843206002E02068A8432060A3
:10064000BDE8F08170B506460C463046FFF798FFCE
:10065000054605B1AC6170BD70B506460C46304626
:10066000FFF78EFF054605B1EC6170BD70B505461C
:100670002846FFF785FF04460CB1606970BD002075
:10068000FCE718B912B9BF4B196017E0022804D172
:100690001AB9BC4B2033196010E028B9012A03D1E4
:1006A000B84B1B1D196009E0022805D1012A03D1AE
:1006B000B44B2433196001E000BFFEE770470346E6
:1006C0003BB932B9AF480C380068C84000F00100AF
:1006D0007047022B07D132B9AA4814300068C840CD
:1006E00000F00100F4E743B9012A06D1A548083813
:1006F0000068C84000F00100EAE7022B08D1012A97
:1007000006D1A04818300068C84000F00100DFE7BB
:1007100000BFFEE718B99B4A121F116007E00228CC
:1007200003D1984A1C32116001E000BFFEE7704718
:1007300070B504460D461646324629462046FFF758
:100740006DFF70BD70B504460D4629462046FFF783
:1007500079FF70BD70B504460D4629462046FFF767
:100760007BFF70BD10B504462046FFF77FFF10BD2C
:1007700070B504460D461646324629462046FFF718
:1007800080FF70BD70B504460D46164632462946B8
:100790002046FFF794FF70BD10B503460C46214676
:1007A0001846FFF7B7FF10BD2DE9F04107460D468B
:1007B00016463846FFF7E4FE04463CB11EB12069F8
:1007C0002843206102E02069A8432061BDE8F08150
:1007D0002DE9F04180460E4615461F464046FFF77C
:1007E000E9FE04468CB147B11EB1608828436080A1
:1007F0000BE020882843208007E01EB16088A843D2
:10080000608002E02088A8432080BDE8F0812DE9C7
:10081000F04180460E4615461F464046FFF7CAFE89
:1008200004468CB147B11EB1608A284360820BE058
:10083000208A2843208207E01EB1608AA843608294
:1008400002E0208AA8432082BDE8F0812DE9F04132
:1008500007460E4614463846FFF7ACFE05461DB166
:100860000EB16C8300E02C83BDE8F0812DE9F041EE
:1008700007460E4614463846FFF79CFE05461DB156
:100880000EB1EC8300E0AC83BDE8F08170B50646A4
:100890000D463046FFF78EFE044624B10DB1E08AC6
:1008A00070BDA08AFCE70020FAE72DE9F041804600
:1008B0000C4616461F464046FFF796FE05465DB1BC
:1008C0002FB1032C08DC285D3043285504E0032CAD
:1008D00002DC285DB0432855BDE8F0812DE9F041E8
:1008E00080460C4616461F464046FFF77DFE0546ED
:1008F0009DB14FB1032C10DC05F11000005D3043B9
:1009000005F11001085508E0032C06DC05F1100084
:10091000005DB04305F110010855BDE8F0812DE9F7
:10092000F04107460C4615463846FFF75DFE064681
:1009300026B1032C02DC06F118000555BDE8F08154
:100940002DE9F04107460C4615463846FFF74CFEA8
:10095000064626B1032C02DC06F11C000555BDE855
:10096000F08170B506460C463046FFF73DFE054661
:1009700055B1032C08DC05F11400005D70BD0000CA
:1009800000C00920908002400020F7E7F0B504463F
:100990000B461546194660003B4A102901D3103911
:1009A000401C52F820604FEA410C032707FA0CF76D
:1009B000BE4342F8206052F820604F0005FA07F766
:1009C0003E4342F82060F0BDF0B504460B461546A4
:1009D000194660002C4A4032102901D31039401CBE
:1009E00052F820604FEA410C032707FA0CF7BE4388
:1009F00042F8206052F820604F0005FA07F73E43A6
:100A000042F82060F0BD30B50B461F496831012A1D
:100A100007D151F8204001259D402C4341F820404A
:100A200006E051F8204001259D40AC4341F82040AC
:100A300030BD012806D11449896A41F00801124AE3
:100A4000916206E028B91049896A21F008010E4A2E
:100A500091627047012800D1052201B90A220A4B90
:100A6000DA67704710B50446A27861782078FFF7FE
:100A70008DFFE27861782078FFF7A6FF2279617810
:100A80002078FFF7C0FF10BD00C0024070B50546DA
:100A900035B1012D09D0022D0CD0032D14D10EE05B
:100AA0000220FFF7BFFB04460EE00420FFF7BAFB6D
:100AB000044609E02C20FFF7B5FB044604E02E2095
:100AC000FFF7B0FB044600BF00BF204670BD2DE914
:100AD000F04781460C464846FFF7D8FF00260546FA
:100AE00000232946A1FB047C06FB04C205FB03216D
:100AF000FC4A384600F078FC05462846BDE8F087F9
:100B000001464FF0FF30B1F1402F01D100200DE040
:100B1000F54A914201D1012008E0F44A914201D105
:100B2000022003E0F24A914200D10320704770B5E1
:100B300005460C46B5F1402F08D0EB48854205D05C
:100B4000EA48854202D0EA48854200D103E0A62166
:100B5000E8A000F003FB4CB1012C07D0022C05D01B
:100B6000032C03D0042C01D0052C00D103E0A721D5
:100B7000E0A000F0F3FA28680121A1400840C6B2C5
:100B80000EB1012070BD0020FCE770B505460C4693
:100B9000B5F1402F08D0D448854205D0D3488542CE
:100BA00002D0D348854200D103E0C421D1A000F097
:100BB000D5FA4CB1012C07D0022C05D0032C03D060
:100BC000042C01D0052C00D103E0C521C9A000F000
:100BD000C5FA2868211D01228A401040C6B20EB114
:100BE000012070BD0020FCE770B505460C46B5F14C
:100BF000402F08D0BC48854205D0BC48854202D071
:100C0000BB48854200D103E0DD21BAA000F0A6FA7E
:100C10004CB1012C07D0022C05D0032C03D0042C9E
:100C200001D0052C00D103E0DE21B2A000F096FA3D
:100C30000120A040286070BD70B505460C46B5F196
:100C4000402F08D0A848854205D0A848854202D048
:100C5000A748854200D103E0F421A6A000F07EFA67
:100C60004CB1012C07D0022C05D0032C03D0042C4E
:100C700001D0052C00D103E0F5219EA000F06EFA12
:100C8000201D01218140296070BD20B90A46012341
:100C90001370536003E00A460023537000BF70478F
:100CA0002DE9F04704460D461646B4F1402F08D012
:100CB0008D48844205D08D48844202D08C488442BD
:100CC00000D104E040F22B118AA000F047FA2DB1C8
:100CD000012D03D0022D01D0032D00D104E04FF4EB
:100CE000967184A000F03AFAB4F1402F08D10121A6
:100CF0000220FFF7B4FA00210220FFF753FA22E0A6
:100D00007948844208D101210420FFF7A8FA002184
:100D10000420FFF747FA16E07448844208D1012105
:100D20008805FFF79CFA00212C20FFF73BFA0AE028
:100D30006F48844207D10121C805FFF790FA0021CE
:100D40002E20FFF72FFAA06A20F00300A062A06A0D
:100D5000A0620020A0602061E060606840F00200B6
:100D60006060606820F00200606085B937463878BE
:100D700018B97868401EE06017E02046FFF7C0FE13
:100D800081467968FFF7A3FE401EE0600DE0B046A3
:100D9000A06A20F00C00A062464698F801000128E5
:100DA00003D1A06A40F00400A0624FF0FF30206041
:100DB000BDE8F08710B50446B4F1402F08D04A488A
:100DC000844205D04948844202D04948844200D137
:100DD00004E040F2791147A000F0C0F90020606003
:100DE000B4F1402F04D100210220FFF738FA18E0B7
:100DF0003D48844204D100210420FFF730FA10E07E
:100E00003A48844205D100214FF48000FFF727FAC9
:100E100007E03748844204D100214FF48000FFF7F7
:100E20001EFA10BD70B504460D46B4F1402F08D02F
:100E30002D48844205D02D48844202D02C4884425B
:100E400000D104E04FF4CD712AA000F087F9012D04
:100E500004D1606840F00100606003E0606820F049
:100E60000100606070BD10B50446B4F1402F08D099
:100E70001D48844205D01D48844202D01C4884424B
:100E800000D104E04FF4D9711AA000F067F960684E
:100E900040F002006060606820F00200606010BDF9
:100EA00070B504460D46B4F1402F08D00E48844278
:100EB00005D00E48844202D00D48844200D104E09F
:100EC00040F2D1110BA000F049F9287940B12879FE
:100ED000012805D02879022802D02879032829D1B1
:100EE0002EE0000040420F0000800040000009405A
:100EF000004009402E2E5C4C696272617269657314
:100F00005C4C4350313736385F53746450657269B6
:100F100070685F4472697665725C736F7572636541
:100F20005C6C7063313778785F74696D65722E63BD
:100F3000000000004FF4E971AFF2480000F00EF934
:100F4000287830B1012807D0022808D003280CD116
:100F500008E0A868A0610AE0A868E06107E0A86866
:100F6000206204E0A868606201E000BFFEE700BF05
:100F70006069297801EB4102072191408843606153
:100F8000687838B16069297801EB4102012191400C
:100F900008436061E87840B16069297801EB41015C
:100FA000491C01228A4010436061A87840B1606901
:100FB000297801EB4101891C01228A4010436061BC
:100FC000E06B2978042202EB41020321914088431F
:100FD000E063287900F003002978042202EB410144
:100FE0008840E16B0843E06370BD70B504460E466F
:100FF0001546B4F1402F08D04348844205D04348F9
:10100000844202D04248844200D105E040F20721E8
:10101000AFF2201000F0A2F836B1012E06D0022E59
:1010200006D0032E08D105E0A56107E0E56105E0E3
:10103000256203E0656201E000BFFEE700BF70BD0E
:1010400070B504460D46B4F1402F08D02E488442B6
:1010500005D02E48844202D02D48844200D105E0BC
:1010600040F22D21AFF2741000F078F8A06A2978D0
:1010700001EB4102072191408843A062687838B1B2
:10108000A06A297801EB4102012191400843A06246
:10109000A87840B1A06A297801EB4101491C0122DE
:1010A0008A401043A062E87840B1A06A297801EB39
:1010B0004101891C01228A401043A06270BD70B5B5
:1010C00004460D46B4F1402F08D00F48844205D0A5
:1010D0000E48844202D00E48844200D105E04FF40D
:1010E0001271AFF2F01000F039F80DB1012D00D1FE
:1010F00005E040F24921AFF2042000F02FF80DB9CD
:10110000E06A70BD206BFCE70080004000000940F1
:101110000040094010B500F06DF80020104908703B
:101120000AE00F4800780F490D4A127888540C489D
:101130000078401C0A490870094800781028F0DB44
:1011400009480178074800F0EAF800BF074800782E
:101150000028FBD000F02BF9002010BD00BFFEE7F7
:10116000040000102C0000102800001010000010D7
:101170001C480068401C1B490860704730B51A487D
:1011800000684FF47A72B0FBF2F0411EB1F1807F3B
:1011900000D31DE021F07F40401E4FF0E02250615F
:1011A00050171F22002807DAD3061D0E0F4B00F040
:1011B0000F04241F1D5503E0D3061C0E0C4B1C54BA
:1011C00000BF00204FF0E02290610720106100BFB7
:1011D00030BD044A116800BF024A1268521A8242A6
:1011E000FAD37047080000100000001018ED00E06E
:1011F00000E400E010B572490020FFF746FD002032
:101200006F4908700A4600214FF04020FFF748FD63
:101210006C490020FFF739FD01206A4908706320FE
:1012200048600A4600216848FFF73AFD03206749F5
:1012300008710120C8704FF04020FFF731FE0E22E8
:1012400000214FF04020FFF7D0FE01206049487098
:1012500088705D48FFF724FE01205E4908701C205D
:101260004870032088700020C8700871411EFFF785
:10127000F3F95848FFF7F6FB0220012181404209AB
:10128000920002F1E022C2F8001100BF0020524992
:10129000086010BD10B550480068B0F5827F30DAA4
:1012A0004E48007818B900204A49887002E00320AF
:1012B00048498870434A00214348FFF7F1FC4748FA
:1012C00001784FF04020FFF7ADFD44480078012839
:1012D00001D0012000E000204049087040483E490C
:1012E000096850F8212000213748FFF77EFE0121D0
:1012F0003548FFF797FD38480068401C36490860BC
:101300000CE00020354908703349086000214FF097
:101310004020FFF787FD01203249087010BD2DE9FC
:10132000F04107460D4600202E4908705A202C49EE
:1013300008602D2048600620022101EB0511284A93
:1013400042F821004FF4C870032101EB051142F867
:10135000210000241EE0002618E0062106EBC40050
:101360004000801C1E4A42F82010385D01213141A6
:10137000084008B10A2100E0142106EBC400400037
:10138000C01C174A42F82010701CC6B2082EE4DBBD
:10139000601CC4B2AC42DEDBFFF77CFFBDE8F0812D
:1013A00010B50948FFF706FDFFF774FF10BD10B533
:1013B0004FF04020FFF7FEFC0348FFF7FBFC10BD99
:1013C0001800001020000010008000403C000010B9
:1013D00048000010120000100C0000101100001056
:1013E000540000101000001053EA020C00F0698055
:1013F0002DE9F04B4FF00006002B1FBFB3FA83F529
:1014000003FA05F424FA05F65E4012BF1643B2FA59
:1014100082F502FA05F4C5F120051EBF22FA05FC8B
:1014200044EA0C04203556EA044C4FEA144418BF31
:10143000641C4FF000084FF00009904271EB030C60
:1014400039D3002919BFB1FA81F701FA07F6B0FACA
:1014500080F700FA07F6C7F120071EBF20FA07FC45
:1014600046EA0C062037B6FBF4FCA7EB0507103F55
:1014700007F01F0BCBF120060CFA0BFB2CFA06F63B
:1014800044BFB3460026202FA4BF5E464FF0000B9A
:101490005BEA060C08BF4FF0010B19EB0B09ABFB25
:1014A000027C48EB0608C01B06FB02CC0BFB03CCFE
:1014B00071EB0C01C1E70B46024641464846BDE8C8
:1014C000F08B13B54FF000004FF00001AFF3008038
:1014D000BDE81C407047754600F022F8AE46050096
:1014E0006946534620F00700854618B020B5FEF740
:1014F00049FEBDE820404FF000064FF000074FF0D6
:1015000000084FF0000B21F00701AC46ACE8C00921
:10151000ACE8C009ACE8C009ACE8C0098D4670472A
:10152000004870476404001001491820ABBEFEE774
:101530002600020054150000000000102C000000DE
:1015400008010000801500002C0000109C0600001F
:101550002401000000E1F50500000000000000008B
:10156000000000000001000000000000000000007A
:10157000000000000000000000000000100000005B
:04000005000000CD2A
:00000001FF
